:100000000C9461000C947E000C947E000C947E0095
:100010000C947E000C947E000C947E000C947E0068
:100020000C947E000C947E000C947E000C947E0058
:100030000C947E000C947E000C947E000C947E0048
:100040000C94E0000C947E000C947E000C947E00D6
:100050000C947E000C947E000C947E000C947E0028
:100060000C947E000C947E00000000002400270009
:100070002A0000000000250028002B0000000000DE
:1000800023002600290004040404040404040202DA
:100090000202020203030303030301020408102007
:1000A0004080010204081020010204081020000012
:1000B0000007000201000003040600000000000029
:1000C000000011241FBECFEFD8E0DEBFCDBF11E08E
:1000D000A0E0B1E0ECEAF4E002C005900D92A83097
:1000E000B107D9F711E0A8E0B1E001C01D92A1313C
:1000F000B107E1F70E94D9000C9454020C9400005F
:10010000CF93DF93C0E0D0E08091040161E00E94D2
:10011000B80161E070E080E090E00E9434018091DD
:10012000040160E00E94B80161E070E080E090E0CE
:100130000E9434012196C436D10531F7DF91CF9169
:100140000895809102010E940502019791F4809127
:10015000000161E00E94B80168EE73E080E090E089
:100160000E9434018091000160E00E94B8010E9469
:10017000800008958091000161E00E9498018091C3
:10018000020160E00E9498018091040161E00E94F8
:1001900098018091060161E00E949801809104011C
:1001A00060E00E94B8018091060160E00E94B80101
:1001B00008950E945E010E94BA000E94A100FDCF36
:1001C0001F920F920FB60F9211242F933F934F93CC
:1001D0005F936F937F938F939F93AF93BF93209180
:1001E0000C0130910D0140910E0150910F01709161
:1001F0001001DA01C9010296A11DB11D672F6A5FC6
:100200006D3730F06D57DA01C9010396A11DB11D9C
:100210006093100180930C0190930D01A0930E0147
:10022000B0930F018091080190910901A0910A01FA
:10023000B0910B010196A11DB11D8093080190930F
:100240000901A0930A01B0930B01BF91AF919F9157
:100250008F917F916F915F914F913F912F910F906F
:100260000FBE0F901F901895EF92FF920F931F9360
:100270007B018C018FB7F89440910C0150910D01D6
:1002800060910E0170910F018FBF2FB7F89480918C
:100290000C0190910D01A0910E01B0910F012FBFA3
:1002A000841B950BA60BB70BE816F9060A071B076C
:1002B00060F71F910F91FF90EF900895789484B5A7
:1002C000826084BD84B5816084BD85B5826085BD52
:1002D00085B5816085BDEEE6F0E080818160808338
:1002E000E1E8F0E0808182608083808181608083AA
:1002F000E0E8F0E0808181608083E1EBF0E08081E4
:1003000084608083E0EBF0E0808181608083EAE7B5
:10031000F0E080818460808380818260808380813E
:10032000816080838081806880831092C1000895FD
:10033000282F30E0C90186569F4FFC0194912A571F
:100340003F4FF9018491882391F0E82FF0E0EE0F00
:10035000FF1FE859FF4FA591B491662329F48C91B2
:10036000909589238C9308958C91892B8C93089573
:10037000482F50E0CA0182559F4FFC012491CA01C9
:1003800086569F4FFC0194914A575F4FFA01349172
:100390003323D1F1222331F1233021F480918000E5
:1003A0008F7705C0243031F4809180008F7D809359
:1003B000800018C0213019F484B58F7704C0223032
:1003C00021F484B58F7D84BD0DC0263021F4809149
:1003D000B0008F7705C0273029F48091B0008F7D61
:1003E0008093B000E32FF0E0EE0FFF1FEE58FF4FB9
:1003F000A591B491662329F48C91909589238C93CF
:1004000008958C91892B8C930895682F70E0CB010F
:1004100082559F4FFC012491CB0186569F4FFC01D2
:1004200044916A577F4FFB019491992319F420E07E
:1004300030E038C0222331F1233021F48091800054
:100440008F7705C0243031F4809180008F7D8093B8
:10045000800018C0213019F484B58F7704C0223091
:1004600021F484B58F7D84BD0DC0263021F48091A8
:10047000B0008F7705C0273029F48091B0008F7DC0
:100480008093B000892F90E0880F991F84589F4F68
:10049000FC01A591B4918C9120E030E0842311F00F
:0C04A00021E030E0C9010895F894FFCF7E
:0804AC00030002000400070038
:00000001FF
