:100000000C9434000C9451000C9451000C94510049
:100010000C9451000C9451000C9451000C9451001C
:100020000C9451000C9453000C9451000C9451000A
:100030000C9451000C9451000C9451000C945100FC
:100040000C946A020C9451000C9451000C945100D1
:100050000C9451000C9451000C9451000C945100DC
:100060000C9451000C94510011241FBECFEFD4E02A
:10007000DEBFCDBF11E0A0E0B1E0E2E3F6E002C0F8
:1000800005900D92A030B107D9F711E0A0E0B1E0E2
:1000900001C01D92AA32B107E1F70E9465020C94DB
:1000A00017030C9400001F920F920FB60F921124A9
:1000B0008F9383E88093B2008F910F900FBE0F90C3
:1000C0001F9018959C0181E006C085BB16BCA89BBB
:1000D000FECF2050314091E021303907B0F781E068
:1000E00085BB822F819586BDA89BFECF0895CF93B7
:1000F000DF93EC0105C088EE93E00E946200219737
:100100002097C9F7DF91CF91089580FF02C02A9A06
:1001100001C02A9881FF02C05B9A01C05B9882FFF0
:1001200002C02D9A01C02D9883FF02C05D9A0895E8
:100130005D98089583B18695809581704A9B826011
:100140001C9B84604E9B886008951F93CF93DF9320
:10015000CAEFD0E011C05F9A5C98CE010E946200A5
:100160005F985C9ACE010E9462001F5F133099F77E
:100170002197C634D10511F010E0EDCFDF91CF917A
:100180001F91089586E00E9485000E94A50089E0E5
:100190000E9485000E94A50086E00E9485000E94C2
:1001A000A50089E00E9485000E94A50008956F9235
:1001B0007F928F929F92AF92BF92CF92DF92EF92F7
:1001C000FF920F931F93CF93DF93EB01A0E0B0E07A
:1001D000BC01CD0128EE33E040E050E00E94F8027F
:1001E0007B018C01CE01880F991F5C01CC24DD249A
:1001F0006624772443016A187B088C089D080EC08A
:10020000E60CF71C081D191D5C985F9ACE010E9430
:1002100062005C9A5F98CE010E946200AE14BF0437
:10022000C006D10668F3DF91CF911F910F91FF9027
:10023000EF90DF90CF90BF90AF909F908F907F9086
:100240006F90089583E00E9485008FEF90E06CED41
:1002500075E00E94D7008CE00E9485008FEF90E04F
:100260006CED75E00E94D70083E00E9485008FEF5F
:1002700090E06CED75E00E94D7008CE00E94850054
:100280008FEF90E06CED75E00E94D70008951F930A
:10029000CF93DF93182FEB010E948500123071F08D
:1002A000133018F41130B9F405C0143059F0183077
:1002B00091F40CC0CE0160E774E00BC0CE0168E39E
:1002C00072E007C0CE0163E573E003C0CE016EE7C4
:1002D00072E00E94D70080E00E948500DF91CF91FC
:1002E0001F9108951F9310E00EC0E12FF0E0E05041
:1002F000FF4F808166E970E00E94470186E990E047
:100300000E9477001F5F80912001181770F31F91E2
:10031000089581E00E94850084E690E00E947700C5
:100320000E949A00882309F584E00E94850084E6F3
:1003300090E00E9477000E949A008823B1F482E046
:100340000E94850084E690E00E9477000E949A0057
:10035000882359F488E00E94850084E690E00E949A
:1003600077000E949A008823A1F20895EF92FF92ED
:100370000F931F93DF93CF930F92CDB7DEB7198200
:1003800038EBE32E3BE0F32E0E949A00182F8823CF
:1003900011F481E08983101759F4E981E13041F4C7
:1003A000113099F0143089F0123079F0183069F07A
:1003B00081E090E00E9477000894E108F108E114E0
:1003C000F10411F0012FE0CF10E0812F0F90CF91B9
:1003D000DF911F910F91FF90EF9008950F931F935E
:1003E000CF93DF9310922001C1E0D0E02EC0809126
:1003F000B200E22FF0E0E050FF4F8370AE0102C088
:10040000440F551F8A95E2F740832F5F2093200108
:100410000E94720100E011C00E94B601182F8823CB
:10042000D9F066E970E00E944701E02FF0E0E0506B
:10043000FF4F8081181781F40F5F8091200108170A
:1004400058F388EE93E00E947700209120012D3030
:1004500070F221E030E002C020E030E0C901DF911D
:10046000CF911F910F9108958DEE84B98FEF87B9C9
:100470008BEB8AB982E185B984E48BB914BC109204
:100480006E0082E085BD1092B60087E08093B100D7
:1004900081E080937000F8940E94C2000E9489015C
:1004A0008FE00E94850088EE93E00E94770080E054
:1004B0000E9485008AEF90E00E9477000E94EE0182
:1004C000892B51F70E942201E9CF0E94BE020E94AF
:1004D0003402FDCF1F920F920FB60F9211242F936B
:1004E0003F934F935F936F937F938F939F93AF93BC
:1004F000BF93209125013091260140912701509111
:10050000280170912901DA01C9010296A11DB11DCE
:10051000672F6A5F6D3730F06D57DA01C9010396B6
:10052000A11DB11D6093290180932501909326019F
:10053000A0932701B093280180912101909122017D
:10054000A0912301B09124010196A11DB11D8093BA
:10055000210190932201A0932301B0932401BF9124
:10056000AF919F918F917F916F915F914F913F914B
:100570002F910F900FBE0F901F901895789484B50F
:10058000826084BD84B5816084BD85B5826085BD8F
:1005900085B5816085BDEEE6F0E080818160808375
:1005A000E1E8F0E0808182608083808181608083E7
:1005B000E0E8F0E0808181608083E1EBF0E0808121
:1005C00084608083E0EBF0E0808181608083EAE7F3
:1005D000F0E080818460808380818260808380817C
:1005E000816080838081806880831092C10008953B
:1005F000629FD001739FF001829FE00DF11D649F07
:10060000E00DF11D929FF00D839FF00D749FF00D92
:10061000659FF00D9927729FB00DE11DF91F639F33
:10062000B00DE11DF91FBD01CF0111240895F8940B
:02063000FFCFFA
:00000001FF
